{
  "address": "0x5c25Dd7960Ed6e75b6a417d565b047093BE7ed01",
  "abi": [
    {
      "inputs": [
        {
          "internalType": "address",
          "name": "_stargateRouter",
          "type": "address"
        }
      ],
      "stateMutability": "nonpayable",
      "type": "constructor"
    },
    {
      "anonymous": false,
      "inputs": [
        {
          "indexed": false,
          "internalType": "address",
          "name": "token",
          "type": "address"
        },
        {
          "indexed": false,
          "internalType": "uint256",
          "name": "qty",
          "type": "uint256"
        }
      ],
      "name": "ReceivedOnDestination",
      "type": "event"
    },
    {
      "inputs": [
        {
          "internalType": "uint16",
          "name": "",
          "type": "uint16"
        },
        {
          "internalType": "bytes",
          "name": "",
          "type": "bytes"
        },
        {
          "internalType": "uint256",
          "name": "",
          "type": "uint256"
        },
        {
          "internalType": "address",
          "name": "_token",
          "type": "address"
        },
        {
          "internalType": "uint256",
          "name": "amountLD",
          "type": "uint256"
        },
        {
          "internalType": "bytes",
          "name": "_payload",
          "type": "bytes"
        }
      ],
      "name": "sgReceive",
      "outputs": [],
      "stateMutability": "nonpayable",
      "type": "function"
    },
    {
      "inputs": [],
      "name": "stargateRouter",
      "outputs": [
        {
          "internalType": "address",
          "name": "",
          "type": "address"
        }
      ],
      "stateMutability": "view",
      "type": "function"
    },
    {
      "inputs": [
        {
          "internalType": "uint256",
          "name": "qty",
          "type": "uint256"
        },
        {
          "internalType": "address",
          "name": "bridgeToken",
          "type": "address"
        },
        {
          "internalType": "uint16",
          "name": "dstChainId",
          "type": "uint16"
        },
        {
          "internalType": "uint16",
          "name": "srcPoolId",
          "type": "uint16"
        },
        {
          "internalType": "uint16",
          "name": "dstPoolId",
          "type": "uint16"
        },
        {
          "internalType": "address",
          "name": "to",
          "type": "address"
        },
        {
          "internalType": "address",
          "name": "destStargateComposed",
          "type": "address"
        }
      ],
      "name": "swap",
      "outputs": [],
      "stateMutability": "payable",
      "type": "function"
    }
  ],
  "transactionHash": "0x86a8b99a7d6c395bd366770924b26fd3938e889743408e4acbba3a37bbc35b7e",
  "args": [
    "0x95461eF0e0ecabC049a5c4a6B98Ca7B335FAF068"
  ],
  "numDeployments": 1,
  "solcInputHash": "a8d22935701bf67a8016d8f6fb8fa06d",
  "bytecode": "0x608060405234801561001057600080fd5b50604051610c41380380610c4183398101604081905261002f91610054565b600080546001600160a01b0319166001600160a01b0392909216919091179055610084565b60006020828403121561006657600080fd5b81516001600160a01b038116811461007d57600080fd5b9392505050565b610bae806100936000396000f3fe6080604052600436106100345760003560e01c8063a9e56f3c14610039578063ab8236f314610075578063b13bf31514610097575b600080fd5b34801561004557600080fd5b50600054610059906001600160a01b031681565b6040516001600160a01b03909116815260200160405180910390f35b34801561008157600080fd5b506100956100903660046108cc565b6100aa565b005b6100956100a5366004610967565b6101f3565b6000546001600160a01b0316331461011a5760405162461bcd60e51b815260206004820152602860248201527f6f6e6c7920737461726761746520726f757465722063616e2063616c6c207367604482015267526563656976652160c01b60648201526084015b60405180910390fd5b60008180602001905181019061013091906109ee565b60405163a9059cbb60e01b81526001600160a01b038083166004830152602482018690529192509085169063a9059cbb906044016020604051808303816000875af1158015610183573d6000803e3d6000fd5b505050506040513d601f19601f820116820180604052508101906101a79190610a12565b50604080516001600160a01b0386168152602081018590527f9055ece9d44a86bda76b7ffbee0015dcdd504bd121fe9d4afd5300275ee817be910160405180910390a150505050505050565b600034116102695760405162461bcd60e51b815260206004820152603760248201527f73746172676174652072657175697265732061206d73672e76616c756520746f60448201527f207061792063726f7373636861696e206d6573736167650000000000000000006064820152608401610111565b600087116102b95760405162461bcd60e51b815260206004820152601e60248201527f6572726f723a2073776170282920726571756972657320717479203e203000006044820152606401610111565b604080516001600160a01b03841660208201526000910160408051601f1981840301815291905290506102f76001600160a01b03881633308b61040d565b600054610311906001600160a01b0389811691168a61047e565b60008054906101000a90046001600160a01b03166001600160a01b0316639fbf10fc34888888338e6000604051806060016040528062030d4081526020016000815260200160405180604001604052806002815260200161060f60f31b8152508152508b60405160200161039d919060609190911b6bffffffffffffffffffffffff1916815260140190565b6040516020818303038152906040528b6040518b63ffffffff1660e01b81526004016103d199989796959493929190610a8c565b6000604051808303818588803b1580156103ea57600080fd5b505af11580156103fe573d6000803e3d6000fd5b50505050505050505050505050565b6040516001600160a01b03808516602483015283166044820152606481018290526104789085906323b872dd60e01b906084015b60408051601f198184030181529190526020810180516001600160e01b03166001600160e01b031990931692909217909152610598565b50505050565b8015806104f85750604051636eb1769f60e11b81523060048201526001600160a01b03838116602483015284169063dd62ed3e90604401602060405180830381865afa1580156104d2573d6000803e3d6000fd5b505050506040513d601f19601f820116820180604052508101906104f69190610b30565b155b6105635760405162461bcd60e51b815260206004820152603660248201527f5361666545524332303a20617070726f76652066726f6d206e6f6e2d7a65726f60448201527520746f206e6f6e2d7a65726f20616c6c6f77616e636560501b6064820152608401610111565b6040516001600160a01b03831660248201526044810182905261059390849063095ea7b360e01b90606401610441565b505050565b60006105ed826040518060400160405280602081526020017f5361666545524332303a206c6f772d6c6576656c2063616c6c206661696c6564815250856001600160a01b031661066d9092919063ffffffff16565b905080516000148061060e57508080602001905181019061060e9190610a12565b6105935760405162461bcd60e51b815260206004820152602a60248201527f5361666545524332303a204552433230206f7065726174696f6e20646964206e6044820152691bdd081cdd58d8d9595960b21b6064820152608401610111565b606061067c8484600085610684565b949350505050565b6060824710156106e55760405162461bcd60e51b815260206004820152602660248201527f416464726573733a20696e73756666696369656e742062616c616e636520666f6044820152651c8818d85b1b60d21b6064820152608401610111565b600080866001600160a01b031685876040516107019190610b49565b60006040518083038185875af1925050503d806000811461073e576040519150601f19603f3d011682016040523d82523d6000602084013e610743565b606091505b50915091506107548783838761075f565b979650505050505050565b606083156107cb5782516107c4576001600160a01b0385163b6107c45760405162461bcd60e51b815260206004820152601d60248201527f416464726573733a2063616c6c20746f206e6f6e2d636f6e74726163740000006044820152606401610111565b508161067c565b61067c83838151156107e05781518083602001fd5b8060405162461bcd60e51b81526004016101119190610b65565b803561ffff8116811461080c57600080fd5b919050565b634e487b7160e01b600052604160045260246000fd5b600082601f83011261083857600080fd5b813567ffffffffffffffff8082111561085357610853610811565b604051601f8301601f19908116603f0116810190828211818310171561087b5761087b610811565b8160405283815286602085880101111561089457600080fd5b836020870160208301376000602085830101528094505050505092915050565b6001600160a01b03811681146108c957600080fd5b50565b60008060008060008060c087890312156108e557600080fd5b6108ee876107fa565b9550602087013567ffffffffffffffff8082111561090b57600080fd5b6109178a838b01610827565b96506040890135955060608901359150610930826108b4565b9093506080880135925060a0880135908082111561094d57600080fd5b5061095a89828a01610827565b9150509295509295509295565b600080600080600080600060e0888a03121561098257600080fd5b873596506020880135610994816108b4565b95506109a2604089016107fa565b94506109b0606089016107fa565b93506109be608089016107fa565b925060a08801356109ce816108b4565b915060c08801356109de816108b4565b8091505092959891949750929550565b600060208284031215610a0057600080fd5b8151610a0b816108b4565b9392505050565b600060208284031215610a2457600080fd5b81518015158114610a0b57600080fd5b60005b83811015610a4f578181015183820152602001610a37565b838111156104785750506000910152565b60008151808452610a78816020860160208601610a34565b601f01601f19169290920160200192915050565b600061012061ffff808d168452808c166020850152808b1660408501525060018060a01b03891660608401528760808401528660a08401528060c084015285518184015250602085015161014083015260408501516060610160840152610af7610180840182610a60565b905082810360e0840152610b0b8186610a60565b9050828103610100840152610b208185610a60565b9c9b505050505050505050505050565b600060208284031215610b4257600080fd5b5051919050565b60008251610b5b818460208701610a34565b9190910192915050565b602081526000610a0b6020830184610a6056fea26469706673582212200e644bc2f8cb95a64d981ddc97752ce4aef6cc1df6b02c8992ec9377ff7d440e64736f6c634300080c0033",
  "devdoc": {
    "kind": "dev",
    "methods": {},
    "version": 1
  },
  "userdoc": {
    "kind": "user",
    "methods": {},
    "version": 1
  },
  "storageLayout": {
    "storage": [
      {
        "astId": 18905,
        "contract": "contracts/stargate/StargateSwap.sol:StargateSwap",
        "label": "stargateRouter",
        "offset": 0,
        "slot": "0",
        "type": "t_address"
      }
    ],
    "types": {
      "t_address": {
        "encoding": "inplace",
        "label": "address",
        "numberOfBytes": "20"
      }
    }
  }
}